{
  "address": "0x802c454bAaD5B3BA4B3D8E9DDacC6289A56D526E",
  "abi": [
    {
      "anonymous": false,
      "inputs": [
        {
          "indexed": true,
          "internalType": "address",
          "name": "owner",
          "type": "address"
        },
        {
          "indexed": true,
          "internalType": "address",
          "name": "spender",
          "type": "address"
        },
        {
          "indexed": false,
          "internalType": "uint256",
          "name": "value",
          "type": "uint256"
        }
      ],
      "name": "Approval",
      "type": "event"
    },
    {
      "anonymous": false,
      "inputs": [
        {
          "indexed": true,
          "internalType": "address",
          "name": "from",
          "type": "address"
        },
        {
          "indexed": true,
          "internalType": "address",
          "name": "to",
          "type": "address"
        },
        {
          "indexed": false,
          "internalType": "uint256",
          "name": "value",
          "type": "uint256"
        }
      ],
      "name": "Transfer",
      "type": "event"
    },
    {
      "inputs": [],
      "name": "VERSION",
      "outputs": [
        {
          "internalType": "uint256",
          "name": "",
          "type": "uint256"
        }
      ],
      "stateMutability": "view",
      "type": "function"
    },
    {
      "inputs": [
        {
          "internalType": "address",
          "name": "owner",
          "type": "address"
        },
        {
          "internalType": "address",
          "name": "delegate",
          "type": "address"
        }
      ],
      "name": "allowance",
      "outputs": [
        {
          "internalType": "uint256",
          "name": "",
          "type": "uint256"
        }
      ],
      "stateMutability": "view",
      "type": "function"
    },
    {
      "inputs": [
        {
          "internalType": "address",
          "name": "",
          "type": "address"
        }
      ],
      "name": "alreadyMinted",
      "outputs": [
        {
          "internalType": "bool",
          "name": "",
          "type": "bool"
        }
      ],
      "stateMutability": "view",
      "type": "function"
    },
    {
      "inputs": [
        {
          "internalType": "address",
          "name": "delegate",
          "type": "address"
        },
        {
          "internalType": "uint256",
          "name": "numTokens",
          "type": "uint256"
        }
      ],
      "name": "approve",
      "outputs": [
        {
          "internalType": "bool",
          "name": "",
          "type": "bool"
        }
      ],
      "stateMutability": "nonpayable",
      "type": "function"
    },
    {
      "inputs": [
        {
          "internalType": "address",
          "name": "tokenOwner",
          "type": "address"
        }
      ],
      "name": "balanceOf",
      "outputs": [
        {
          "internalType": "uint256",
          "name": "",
          "type": "uint256"
        }
      ],
      "stateMutability": "view",
      "type": "function"
    },
    {
      "inputs": [
        {
          "internalType": "uint256",
          "name": "amount",
          "type": "uint256"
        }
      ],
      "name": "burn",
      "outputs": [],
      "stateMutability": "nonpayable",
      "type": "function"
    },
    {
      "inputs": [],
      "name": "decimals",
      "outputs": [
        {
          "internalType": "uint8",
          "name": "",
          "type": "uint8"
        }
      ],
      "stateMutability": "view",
      "type": "function"
    },
    {
      "inputs": [],
      "name": "getValue",
      "outputs": [
        {
          "internalType": "uint256",
          "name": "",
          "type": "uint256"
        }
      ],
      "stateMutability": "view",
      "type": "function"
    },
    {
      "inputs": [
        {
          "internalType": "uint256",
          "name": "_initValue",
          "type": "uint256"
        }
      ],
      "name": "init",
      "outputs": [],
      "stateMutability": "nonpayable",
      "type": "function"
    },
    {
      "inputs": [],
      "name": "initialized",
      "outputs": [
        {
          "internalType": "bool",
          "name": "",
          "type": "bool"
        }
      ],
      "stateMutability": "view",
      "type": "function"
    },
    {
      "inputs": [
        {
          "internalType": "uint256",
          "name": "amount",
          "type": "uint256"
        }
      ],
      "name": "mint",
      "outputs": [],
      "stateMutability": "nonpayable",
      "type": "function"
    },
    {
      "inputs": [],
      "name": "name",
      "outputs": [
        {
          "internalType": "string",
          "name": "",
          "type": "string"
        }
      ],
      "stateMutability": "view",
      "type": "function"
    },
    {
      "inputs": [],
      "name": "owner_",
      "outputs": [
        {
          "internalType": "address",
          "name": "",
          "type": "address"
        }
      ],
      "stateMutability": "view",
      "type": "function"
    },
    {
      "inputs": [
        {
          "internalType": "uint256",
          "name": "_newvalue",
          "type": "uint256"
        }
      ],
      "name": "setValue",
      "outputs": [],
      "stateMutability": "nonpayable",
      "type": "function"
    },
    {
      "inputs": [],
      "name": "symbol",
      "outputs": [
        {
          "internalType": "string",
          "name": "",
          "type": "string"
        }
      ],
      "stateMutability": "view",
      "type": "function"
    },
    {
      "inputs": [],
      "name": "totalSupply",
      "outputs": [
        {
          "internalType": "uint256",
          "name": "",
          "type": "uint256"
        }
      ],
      "stateMutability": "view",
      "type": "function"
    },
    {
      "inputs": [],
      "name": "totalSupply_",
      "outputs": [
        {
          "internalType": "uint256",
          "name": "",
          "type": "uint256"
        }
      ],
      "stateMutability": "view",
      "type": "function"
    },
    {
      "inputs": [
        {
          "internalType": "address",
          "name": "receiver",
          "type": "address"
        },
        {
          "internalType": "uint256",
          "name": "numTokens",
          "type": "uint256"
        }
      ],
      "name": "transfer",
      "outputs": [
        {
          "internalType": "bool",
          "name": "",
          "type": "bool"
        }
      ],
      "stateMutability": "nonpayable",
      "type": "function"
    },
    {
      "inputs": [
        {
          "internalType": "address",
          "name": "owner",
          "type": "address"
        },
        {
          "internalType": "address",
          "name": "buyer",
          "type": "address"
        },
        {
          "internalType": "uint256",
          "name": "numTokens",
          "type": "uint256"
        }
      ],
      "name": "transferFrom",
      "outputs": [
        {
          "internalType": "bool",
          "name": "",
          "type": "bool"
        }
      ],
      "stateMutability": "nonpayable",
      "type": "function"
    },
    {
      "inputs": [],
      "name": "value",
      "outputs": [
        {
          "internalType": "uint256",
          "name": "",
          "type": "uint256"
        }
      ],
      "stateMutability": "view",
      "type": "function"
    }
  ],
  "transactionHash": "0xb2d42322387387df0db41e20151d9b3a22ebe564758a1073aaa536c501bda021",
  "args": [],
  "numDeployments": 1,
  "solcInputHash": "0b05590a5558692bc4c8836e0c298010",
  "bytecode": "0x608060405234801561001057600080fd5b50610cb5806100206000396000f3fe608060405234801561001057600080fd5b506004361061012c5760003560e01c806342966c68116100ad578063a9059cbb11610071578063a9059cbb14610271578063b7b0422d14610284578063dd62ed3e14610297578063e7663079146102d0578063ffa1ad74146102fb57600080fd5b806342966c6814610205578063552410771461021a57806370a082311461022d57806395d89b4114610256578063a0712d681461025e57600080fd5b806320965255116100f457806320965255146101b957806323b872dd146101c1578063313ce567146101d4578063324536eb146101f35780633fa4f245146101fc57600080fd5b806306fdde0314610131578063095ea7b31461014f5780630a398b8814610172578063158ef93e1461019557806318160ddd146101a7575b600080fd5b610139610303565b6040516101469190610960565b60405180910390f35b61016261015d3660046109ca565b610391565b6040519015158152602001610146565b6101626101803660046109f4565b60086020526000908152604090205460ff1681565b60025461016290610100900460ff1681565b6003545b604051908152602001610146565b6004546101ab565b6101626101cf366004610a0f565b6103fe565b6002546101e19060ff1681565b60405160ff9091168152602001610146565b6101ab60035481565b6101ab60045481565b610218610213366004610a4b565b61053f565b005b610218610228366004610a4b565b6105ba565b6101ab61023b3660046109f4565b6001600160a01b031660009081526006602052604090205490565b6101396105cb565b61021861026c366004610a4b565b6105d8565b61016261027f3660046109ca565b6106fe565b610218610292366004610a4b565b6107f8565b6101ab6102a5366004610a64565b6001600160a01b03918216600090815260076020908152604080832093909416825291909152205490565b6005546102e3906001600160a01b031681565b6040516001600160a01b039091168152602001610146565b6101ab600281565b6000805461031090610a97565b80601f016020809104026020016040519081016040528092919081815260200182805461033c90610a97565b80156103895780601f1061035e57610100808354040283529160200191610389565b820191906000526020600020905b81548152906001019060200180831161036c57829003601f168201915b505050505081565b3360008181526007602090815260408083206001600160a01b038716808552925280832085905551919290917f8c5be1e5ebec7d5bd14f71427d1e84f3dd0314c0f7b2291e5b200ac8c7c3b925906103ec9086815260200190565b60405180910390a35060015b92915050565b6001600160a01b03831660009081526006602052604081205482111561042357600080fd5b6001600160a01b038416600090815260076020908152604080832033845290915290205482111561045357600080fd5b6001600160a01b038416600090815260066020526040902054610476908361091e565b6001600160a01b03851660009081526006602090815260408083209390935560078152828220338352905220546104ad908361091e565b6001600160a01b0380861660009081526007602090815260408083203384528252808320949094559186168152600690915220546104eb9083610941565b6001600160a01b038085166000818152600660205260409081902093909355915190861690600080516020610c608339815191529061052d9086815260200190565b60405180910390a35060019392505050565b336000908152600660205260408120805483929061055e908490610ae7565b9250508190555080600360008282546105779190610ae7565b9091555050336000818152600860209081526040808320805460ff1916905551848152919291600080516020610c6083398151915291015b60405180910390a350565b6105c5816014610afa565b60045550565b6001805461031090610a97565b3360009081526008602052604090205460ff161561062e5760405162461bcd60e51b815260206004820152600e60248201526d105b1c9958591e481b5a5b9d195960921b60448201526064015b60405180910390fd5b6005546001600160a01b031633146106885760405162461bcd60e51b815260206004820181905260248201527f4f776e61626c653a2063616c6c6572206973206e6f7420746865206f776e65726044820152606401610625565b33600090815260066020526040812080548392906106a7908490610b11565b9250508190555080600360008282546106c09190610b11565b909155505033600081815260086020526040808220805460ff1916600117905551600080516020610c60833981519152906105af9085815260200190565b600033158061071457506001600160a01b038316155b6107575760405162461bcd60e51b8152602060048201526014602482015273151c985b9cd9995c881b9bdd08185b1b1bddd95960621b6044820152606401610625565b3360009081526006602052604090205482111561077357600080fd5b3360009081526006602052604090205461078d908361091e565b33600090815260066020526040808220929092556001600160a01b038516815220546107b99083610941565b6001600160a01b038416600081815260066020526040908190209290925590513390600080516020610c60833981519152906103ec9086815260200190565b600254610100900460ff16156108475760405162461bcd60e51b81526020600482015260146024820152734f6e6c7920696e697469616c697a65206f6e636560601b6044820152606401610625565b60408051808201909152600681526544776f75726160d01b60208201526000906108719082610b89565b5060408051808201909152600381526244776160e81b60208201526001906108999082610b89565b506002805460ff191660121790556a52b7d2dcc80cd2e4000000600381905533600081815260066020526040808220849055600580546001600160a01b0319168417905560048590555191929091600080516020610c60833981519152916109049190815260200190565b60405180910390a3506002805461ff001916610100179055565b60008282111561093057610930610c49565b61093a8284610ae7565b9392505050565b60008061094e8385610b11565b90508381101561093a5761093a610c49565b600060208083528351808285015260005b8181101561098d57858101830151858201604001528201610971565b506000604082860101526040601f19601f8301168501019250505092915050565b80356001600160a01b03811681146109c557600080fd5b919050565b600080604083850312156109dd57600080fd5b6109e6836109ae565b946020939093013593505050565b600060208284031215610a0657600080fd5b61093a826109ae565b600080600060608486031215610a2457600080fd5b610a2d846109ae565b9250610a3b602085016109ae565b9150604084013590509250925092565b600060208284031215610a5d57600080fd5b5035919050565b60008060408385031215610a7757600080fd5b610a80836109ae565b9150610a8e602084016109ae565b90509250929050565b600181811c90821680610aab57607f821691505b602082108103610acb57634e487b7160e01b600052602260045260246000fd5b50919050565b634e487b7160e01b600052601160045260246000fd5b818103818111156103f8576103f8610ad1565b80820281158282048414176103f8576103f8610ad1565b808201808211156103f8576103f8610ad1565b634e487b7160e01b600052604160045260246000fd5b601f821115610b8457600081815260208120601f850160051c81016020861015610b615750805b601f850160051c820191505b81811015610b8057828155600101610b6d565b5050505b505050565b815167ffffffffffffffff811115610ba357610ba3610b24565b610bb781610bb18454610a97565b84610b3a565b602080601f831160018114610bec5760008415610bd45750858301515b600019600386901b1c1916600185901b178555610b80565b600085815260208120601f198616915b82811015610c1b57888601518255948401946001909101908401610bfc565b5085821015610c395787850151600019600388901b60f8161c191681555b5050505050600190811b01905550565b634e487b7160e01b600052600160045260246000fdfeddf252ad1be2c89b69c2b068fc378daa952ba7f163c4a11628f55a4df523b3efa264697066735822122022a779ea3f85d993b38233cc35ff177c7686f797367cf6fc1c1684858f189bed64736f6c63430008120033",
  "devdoc": {
    "events": {
      "Approval(address,address,uint256)": {
        "details": "释放条件：当 `value` 单位的货币从账户 (`owner`) 授权给另一账户 (`spender`)时."
      },
      "Transfer(address,address,uint256)": {
        "details": "释放条件：当 `value` 单位的货币从账户 (`from`) 转账到另一账户 (`to`)时."
      }
    },
    "kind": "dev",
    "methods": {
      "totalSupply()": {
        "details": "返回代币总供给."
      }
    },
    "version": 1
  },
  "userdoc": {
    "kind": "user",
    "methods": {},
    "version": 1
  },
  "storageLayout": {
    "storage": [
      {
        "astId": 1584,
        "contract": "contracts/DwaV2.sol:DwaV2",
        "label": "name",
        "offset": 0,
        "slot": "0",
        "type": "t_string_storage"
      },
      {
        "astId": 1586,
        "contract": "contracts/DwaV2.sol:DwaV2",
        "label": "symbol",
        "offset": 0,
        "slot": "1",
        "type": "t_string_storage"
      },
      {
        "astId": 1588,
        "contract": "contracts/DwaV2.sol:DwaV2",
        "label": "decimals",
        "offset": 0,
        "slot": "2",
        "type": "t_uint8"
      },
      {
        "astId": 1590,
        "contract": "contracts/DwaV2.sol:DwaV2",
        "label": "initialized",
        "offset": 1,
        "slot": "2",
        "type": "t_bool"
      },
      {
        "astId": 1592,
        "contract": "contracts/DwaV2.sol:DwaV2",
        "label": "totalSupply_",
        "offset": 0,
        "slot": "3",
        "type": "t_uint256"
      },
      {
        "astId": 1594,
        "contract": "contracts/DwaV2.sol:DwaV2",
        "label": "value",
        "offset": 0,
        "slot": "4",
        "type": "t_uint256"
      },
      {
        "astId": 1596,
        "contract": "contracts/DwaV2.sol:DwaV2",
        "label": "owner_",
        "offset": 0,
        "slot": "5",
        "type": "t_address"
      },
      {
        "astId": 1603,
        "contract": "contracts/DwaV2.sol:DwaV2",
        "label": "balances",
        "offset": 0,
        "slot": "6",
        "type": "t_mapping(t_address,t_uint256)"
      },
      {
        "astId": 1609,
        "contract": "contracts/DwaV2.sol:DwaV2",
        "label": "allowed",
        "offset": 0,
        "slot": "7",
        "type": "t_mapping(t_address,t_mapping(t_address,t_uint256))"
      },
      {
        "astId": 1613,
        "contract": "contracts/DwaV2.sol:DwaV2",
        "label": "alreadyMinted",
        "offset": 0,
        "slot": "8",
        "type": "t_mapping(t_address,t_bool)"
      }
    ],
    "types": {
      "t_address": {
        "encoding": "inplace",
        "label": "address",
        "numberOfBytes": "20"
      },
      "t_bool": {
        "encoding": "inplace",
        "label": "bool",
        "numberOfBytes": "1"
      },
      "t_mapping(t_address,t_bool)": {
        "encoding": "mapping",
        "key": "t_address",
        "label": "mapping(address => bool)",
        "numberOfBytes": "32",
        "value": "t_bool"
      },
      "t_mapping(t_address,t_mapping(t_address,t_uint256))": {
        "encoding": "mapping",
        "key": "t_address",
        "label": "mapping(address => mapping(address => uint256))",
        "numberOfBytes": "32",
        "value": "t_mapping(t_address,t_uint256)"
      },
      "t_mapping(t_address,t_uint256)": {
        "encoding": "mapping",
        "key": "t_address",
        "label": "mapping(address => uint256)",
        "numberOfBytes": "32",
        "value": "t_uint256"
      },
      "t_string_storage": {
        "encoding": "bytes",
        "label": "string",
        "numberOfBytes": "32"
      },
      "t_uint256": {
        "encoding": "inplace",
        "label": "uint256",
        "numberOfBytes": "32"
      },
      "t_uint8": {
        "encoding": "inplace",
        "label": "uint8",
        "numberOfBytes": "1"
      }
    }
  }
}